{
  "contractName": "myBb",
  "abi": [
    {
      "anonymous": false,
      "inputs": [
        {
          "indexed": true,
          "internalType": "address",
          "name": "_owner",
          "type": "address"
        },
        {
          "indexed": true,
          "internalType": "address",
          "name": "_approved",
          "type": "address"
        },
        {
          "indexed": true,
          "internalType": "uint256",
          "name": "_tokenId",
          "type": "uint256"
        }
      ],
      "name": "Approval",
      "type": "event"
    },
    {
      "anonymous": false,
      "inputs": [
        {
          "indexed": false,
          "internalType": "uint256",
          "name": "blobId",
          "type": "uint256"
        },
        {
          "indexed": false,
          "internalType": "string",
          "name": "name",
          "type": "string"
        },
        {
          "indexed": false,
          "internalType": "uint256",
          "name": "dna",
          "type": "uint256"
        }
      ],
      "name": "NewBlob",
      "type": "event"
    },
    {
      "anonymous": false,
      "inputs": [
        {
          "indexed": true,
          "internalType": "address",
          "name": "previousOwner",
          "type": "address"
        },
        {
          "indexed": true,
          "internalType": "address",
          "name": "newOwner",
          "type": "address"
        }
      ],
      "name": "OwnershipTransferred",
      "type": "event"
    },
    {
      "anonymous": false,
      "inputs": [
        {
          "indexed": true,
          "internalType": "address",
          "name": "_from",
          "type": "address"
        },
        {
          "indexed": true,
          "internalType": "address",
          "name": "_to",
          "type": "address"
        },
        {
          "indexed": true,
          "internalType": "uint256",
          "name": "_tokenId",
          "type": "uint256"
        }
      ],
      "name": "Transfer",
      "type": "event"
    },
    {
      "inputs": [
        {
          "internalType": "uint256",
          "name": "",
          "type": "uint256"
        }
      ],
      "name": "blobToOwner",
      "outputs": [
        {
          "internalType": "address",
          "name": "",
          "type": "address"
        }
      ],
      "stateMutability": "view",
      "type": "function",
      "constant": true
    },
    {
      "inputs": [
        {
          "internalType": "uint256",
          "name": "",
          "type": "uint256"
        }
      ],
      "name": "blobs",
      "outputs": [
        {
          "internalType": "string",
          "name": "name",
          "type": "string"
        },
        {
          "internalType": "uint256",
          "name": "dna",
          "type": "uint256"
        },
        {
          "internalType": "uint32",
          "name": "level",
          "type": "uint32"
        },
        {
          "internalType": "uint32",
          "name": "readyTime",
          "type": "uint32"
        }
      ],
      "stateMutability": "view",
      "type": "function",
      "constant": true
    },
    {
      "inputs": [],
      "name": "isOwner",
      "outputs": [
        {
          "internalType": "bool",
          "name": "",
          "type": "bool"
        }
      ],
      "stateMutability": "view",
      "type": "function",
      "constant": true
    },
    {
      "inputs": [],
      "name": "owner",
      "outputs": [
        {
          "internalType": "address",
          "name": "",
          "type": "address"
        }
      ],
      "stateMutability": "view",
      "type": "function",
      "constant": true
    },
    {
      "inputs": [],
      "name": "renounceOwnership",
      "outputs": [],
      "stateMutability": "nonpayable",
      "type": "function"
    },
    {
      "inputs": [
        {
          "internalType": "address",
          "name": "newOwner",
          "type": "address"
        }
      ],
      "name": "transferOwnership",
      "outputs": [],
      "stateMutability": "nonpayable",
      "type": "function"
    },
    {
      "inputs": [
        {
          "internalType": "string",
          "name": "_name",
          "type": "string"
        }
      ],
      "name": "createRandomBlob",
      "outputs": [],
      "stateMutability": "nonpayable",
      "type": "function"
    },
    {
      "inputs": [
        {
          "internalType": "uint256",
          "name": "_blobId",
          "type": "uint256"
        }
      ],
      "name": "feedOnCookie",
      "outputs": [],
      "stateMutability": "nonpayable",
      "type": "function"
    },
    {
      "inputs": [
        {
          "internalType": "uint256",
          "name": "_blobId",
          "type": "uint256"
        }
      ],
      "name": "levelUp",
      "outputs": [],
      "stateMutability": "payable",
      "type": "function",
      "payable": true
    },
    {
      "inputs": [],
      "name": "withdraw",
      "outputs": [],
      "stateMutability": "nonpayable",
      "type": "function"
    },
    {
      "inputs": [
        {
          "internalType": "uint256",
          "name": "_fee",
          "type": "uint256"
        }
      ],
      "name": "setLevelUpFee",
      "outputs": [],
      "stateMutability": "nonpayable",
      "type": "function"
    },
    {
      "inputs": [
        {
          "internalType": "address",
          "name": "_owner",
          "type": "address"
        }
      ],
      "name": "getBlobsByOwner",
      "outputs": [
        {
          "internalType": "uint256[]",
          "name": "",
          "type": "uint256[]"
        }
      ],
      "stateMutability": "view",
      "type": "function",
      "constant": true
    },
    {
      "inputs": [
        {
          "internalType": "address",
          "name": "_owner",
          "type": "address"
        }
      ],
      "name": "balanceOf",
      "outputs": [
        {
          "internalType": "uint256",
          "name": "",
          "type": "uint256"
        }
      ],
      "stateMutability": "view",
      "type": "function",
      "constant": true
    },
    {
      "inputs": [
        {
          "internalType": "uint256",
          "name": "_tokenId",
          "type": "uint256"
        }
      ],
      "name": "ownerOf",
      "outputs": [
        {
          "internalType": "address",
          "name": "",
          "type": "address"
        }
      ],
      "stateMutability": "view",
      "type": "function",
      "constant": true
    },
    {
      "inputs": [
        {
          "internalType": "address",
          "name": "_from",
          "type": "address"
        },
        {
          "internalType": "address",
          "name": "_to",
          "type": "address"
        },
        {
          "internalType": "uint256",
          "name": "_tokenId",
          "type": "uint256"
        }
      ],
      "name": "transferFrom",
      "outputs": [],
      "stateMutability": "payable",
      "type": "function",
      "payable": true
    },
    {
      "inputs": [
        {
          "internalType": "address",
          "name": "_approved",
          "type": "address"
        },
        {
          "internalType": "uint256",
          "name": "_tokenId",
          "type": "uint256"
        }
      ],
      "name": "approve",
      "outputs": [],
      "stateMutability": "payable",
      "type": "function",
      "payable": true
    }
  ],
  "bytecode": "0x60806040526010600155600154600a6200001a919062000289565b600255600a60035566038d7ea4c680006007553480156200003a57600080fd5b50336000806101000a81548173ffffffffffffffffffffffffffffffffffffffff021916908373ffffffffffffffffffffffffffffffffffffffff16021790555060008054906101000a900473ffffffffffffffffffffffffffffffffffffffff1673ffffffffffffffffffffffffffffffffffffffff16600073ffffffffffffffffffffffffffffffffffffffff167f8be0079c531659141344cd1fd0a4f28419497f9722a3daafe3b4186f6b6457e060405160405180910390a3620002da565b7f4e487b7100000000000000000000000000000000000000000000000000000000600052601160045260246000fd5b60008160011c9050919050565b6000808291508390505b60018511156200018a57808604811115620001625762000161620000fc565b5b6001851615620001725780820291505b808102905062000182856200012b565b945062000142565b94509492505050565b600082620001a5576001905062000278565b81620001b5576000905062000278565b8160018114620001ce5760028114620001d9576200020f565b600191505062000278565b60ff841115620001ee57620001ed620000fc565b5b8360020a915084821115620002085762000207620000fc565b5b5062000278565b5060208310610133831016604e8410600b8410161715620002495782820a905083811115620002435762000242620000fc565b5b62000278565b62000258848484600162000138565b92509050818404811115620002725762000271620000fc565b5b81810290505b9392505050565b6000819050919050565b600062000296826200027f565b9150620002a3836200027f565b9250620002d27fffffffffffffffffffffffffffffffffffffffffffffffffffffffffffffffff848462000193565b905092915050565b611b9c80620002ea6000396000f3fe6080604052600436106100f35760003560e01c806370a082311161008a5780638f32d59b116100595780638f32d59b146102ee578063970bad6f14610319578063ccf670f814610356578063f2fde38b1461037f576100f3565b806370a0823114610246578063715018a6146102835780637c80f25b1461029a5780638da5cb5b146102c3576100f3565b80632abc3d4e116100c65780632abc3d4e146101895780633ccfd60b146101c95780636352211e146101e0578063662528c91461021d576100f3565b8063095ea7b3146100f85780630ce90ec2146101145780631782d4731461013057806323b872dd1461016d575b600080fd5b610112600480360381019061010d919061131e565b6103a8565b005b61012e6004803603810190610129919061135e565b6104c6565b005b34801561013c57600080fd5b506101576004803603810190610152919061138b565b61053b565b6040516101649190611476565b60405180910390f35b61018760048036038101906101829190611498565b61068e565b005b34801561019557600080fd5b506101b060048036038101906101ab919061135e565b610772565b6040516101c094939291906115b2565b60405180910390f35b3480156101d557600080fd5b506101de61085a565b005b3480156101ec57600080fd5b506102076004803603810190610202919061135e565b6108c1565b604051610214919061160d565b60405180910390f35b34801561022957600080fd5b50610244600480360381019061023f919061135e565b6108fe565b005b34801561025257600080fd5b5061026d6004803603810190610268919061138b565b610940565b60405161027a9190611628565b60405180910390f35b34801561028f57600080fd5b50610298610989565b005b3480156102a657600080fd5b506102c160048036038101906102bc9190611778565b610a58565b005b3480156102cf57600080fd5b506102d8610abf565b6040516102e5919061160d565b60405180910390f35b3480156102fa57600080fd5b50610303610ae8565b60405161031091906117dc565b60405180910390f35b34801561032557600080fd5b50610340600480360381019061033b919061135e565b610b3f565b60405161034d919061160d565b60405180910390f35b34801561036257600080fd5b5061037d6004803603810190610378919061135e565b610b72565b005b34801561038b57600080fd5b506103a660048036038101906103a1919061138b565b610b8d565b005b806005600082815260200190815260200160002060009054906101000a900473ffffffffffffffffffffffffffffffffffffffff1673ffffffffffffffffffffffffffffffffffffffff163373ffffffffffffffffffffffffffffffffffffffff161461041457600080fd5b826008600084815260200190815260200160002060006101000a81548173ffffffffffffffffffffffffffffffffffffffff021916908373ffffffffffffffffffffffffffffffffffffffff160217905550818373ffffffffffffffffffffffffffffffffffffffff163373ffffffffffffffffffffffffffffffffffffffff167f8c5be1e5ebec7d5bd14f71427d1e84f3dd0314c0f7b2291e5b200ac8c7c3b92560405160405180910390a4505050565b60075434146104d457600080fd5b600481815481106104e8576104e76117f7565b5b9060005260206000209060030201600201600081819054906101000a900463ffffffff168092919061051990611855565b91906101000a81548163ffffffff021916908363ffffffff1602179055505050565b60606000600660008473ffffffffffffffffffffffffffffffffffffffff1673ffffffffffffffffffffffffffffffffffffffff1681526020019081526020016000205467ffffffffffffffff8111156105985761059761164d565b5b6040519080825280602002602001820160405280156105c65781602001602082028036833780820191505090505b5090506000805b600480549050811015610683578473ffffffffffffffffffffffffffffffffffffffff166005600083815260200190815260200160002060009054906101000a900473ffffffffffffffffffffffffffffffffffffffff1673ffffffffffffffffffffffffffffffffffffffff1614156106705780838381518110610655576106546117f7565b5b602002602001018181525050818061066c90611882565b9250505b808061067b90611882565b9150506105cd565b508192505050919050565b6005600082815260200190815260200160002060009054906101000a900473ffffffffffffffffffffffffffffffffffffffff1673ffffffffffffffffffffffffffffffffffffffff163373ffffffffffffffffffffffffffffffffffffffff16148061075957506008600082815260200190815260200160002060009054906101000a900473ffffffffffffffffffffffffffffffffffffffff1673ffffffffffffffffffffffffffffffffffffffff163373ffffffffffffffffffffffffffffffffffffffff16145b61076257600080fd5b61076d838383610baa565b505050565b6004818154811061078257600080fd5b90600052602060002090600302016000915090508060000180546107a5906118fa565b80601f01602080910402602001604051908101604052809291908181526020018280546107d1906118fa565b801561081e5780601f106107f35761010080835404028352916020019161081e565b820191906000526020600020905b81548152906001019060200180831161080157829003601f168201915b5050505050908060010154908060020160009054906101000a900463ffffffff16908060020160049054906101000a900463ffffffff16905084565b610862610ae8565b61086b57600080fd5b6000610875610abf565b90508073ffffffffffffffffffffffffffffffffffffffff166108fc479081150290604051600060405180830381858888f193505050501580156108bd573d6000803e3d6000fd5b5050565b60006005600083815260200190815260200160002060009054906101000a900473ffffffffffffffffffffffffffffffffffffffff169050919050565b61093d816040518060400160405280600b81526020017f706c616365686f6c646572000000000000000000000000000000000000000000815250610d06565b50565b6000600660008373ffffffffffffffffffffffffffffffffffffffff1673ffffffffffffffffffffffffffffffffffffffff168152602001908152602001600020549050919050565b610991610ae8565b61099a57600080fd5b600073ffffffffffffffffffffffffffffffffffffffff1660008054906101000a900473ffffffffffffffffffffffffffffffffffffffff1673ffffffffffffffffffffffffffffffffffffffff167f8be0079c531659141344cd1fd0a4f28419497f9722a3daafe3b4186f6b6457e060405160405180910390a360008060006101000a81548173ffffffffffffffffffffffffffffffffffffffff021916908373ffffffffffffffffffffffffffffffffffffffff160217905550565b6000600660003373ffffffffffffffffffffffffffffffffffffffff1673ffffffffffffffffffffffffffffffffffffffff1681526020019081526020016000205414610aa457600080fd5b6000610aaf82610e63565b9050610abb8282610ea8565b5050565b60008060009054906101000a900473ffffffffffffffffffffffffffffffffffffffff16905090565b60008060009054906101000a900473ffffffffffffffffffffffffffffffffffffffff1673ffffffffffffffffffffffffffffffffffffffff163373ffffffffffffffffffffffffffffffffffffffff1614905090565b60056020528060005260406000206000915054906101000a900473ffffffffffffffffffffffffffffffffffffffff1681565b610b7a610ae8565b610b8357600080fd5b8060078190555050565b610b95610ae8565b610b9e57600080fd5b610ba781611082565b50565b600660008373ffffffffffffffffffffffffffffffffffffffff1673ffffffffffffffffffffffffffffffffffffffff1681526020019081526020016000206000815480929190610bfa90611882565b9190505550600660008473ffffffffffffffffffffffffffffffffffffffff1673ffffffffffffffffffffffffffffffffffffffff1681526020019081526020016000206000815480929190610c4f9061192c565b9190505550816005600083815260200190815260200160002060006101000a81548173ffffffffffffffffffffffffffffffffffffffff021916908373ffffffffffffffffffffffffffffffffffffffff160217905550808273ffffffffffffffffffffffffffffffffffffffff168473ffffffffffffffffffffffffffffffffffffffff167fddf252ad1be2c89b69c2b068fc378daa952ba7f163c4a11628f55a4df523b3ef60405160405180910390a4505050565b816005600082815260200190815260200160002060009054906101000a900473ffffffffffffffffffffffffffffffffffffffff1673ffffffffffffffffffffffffffffffffffffffff163373ffffffffffffffffffffffffffffffffffffffff1614610d7257600080fd5b600060048481548110610d8857610d876117f7565b5b90600052602060002090600302019050610da181611179565b610daa57600080fd5b60006002544233604051602001610dc29291906119bf565b6040516020818303038152906040528051906020012060001c610de59190611a1a565b9050808260010181905550600a8260020160009054906101000a900463ffffffff1663ffffffff161415610e5357610e526040518060400160405280600681526020017f4e6f4e616d65000000000000000000000000000000000000000000000000000081525082610ea8565b5b610e5c826111a0565b5050505050565b60008082604051602001610e779190611a87565b6040516020818303038152906040528051906020012060001c905060025481610ea09190611a1a565b915050919050565b60046040518060800160405280848152602001838152602001600163ffffffff16815260200160035442610edc9190611a9e565b63ffffffff1681525090806001815401808255809150506001900390600052602060002090600302016000909190919091506000820151816000019080519060200190610f2a9291906111d3565b506020820151816001015560408201518160020160006101000a81548163ffffffff021916908363ffffffff16021790555060608201518160020160046101000a81548163ffffffff021916908363ffffffff160217905550505060006001600480549050610f999190611af4565b9050336005600083815260200190815260200160002060006101000a81548173ffffffffffffffffffffffffffffffffffffffff021916908373ffffffffffffffffffffffffffffffffffffffff160217905550600660003373ffffffffffffffffffffffffffffffffffffffff1673ffffffffffffffffffffffffffffffffffffffff168152602001908152602001600020600081548092919061103d90611882565b91905055507f83253f07cdb88c445d046dda4df8617f3a41ce4ed98c1fa8e5e5236ad9dd2ed681848460405161107593929190611b28565b60405180910390a1505050565b600073ffffffffffffffffffffffffffffffffffffffff168173ffffffffffffffffffffffffffffffffffffffff1614156110bc57600080fd5b8073ffffffffffffffffffffffffffffffffffffffff1660008054906101000a900473ffffffffffffffffffffffffffffffffffffffff1673ffffffffffffffffffffffffffffffffffffffff167f8be0079c531659141344cd1fd0a4f28419497f9722a3daafe3b4186f6b6457e060405160405180910390a3806000806101000a81548173ffffffffffffffffffffffffffffffffffffffff021916908373ffffffffffffffffffffffffffffffffffffffff16021790555050565b6000428260020160049054906101000a900463ffffffff1663ffffffff1611159050919050565b600354426111ae9190611a9e565b8160020160046101000a81548163ffffffff021916908363ffffffff16021790555050565b8280546111df906118fa565b90600052602060002090601f0160209004810192826112015760008555611248565b82601f1061121a57805160ff1916838001178555611248565b82800160010185558215611248579182015b8281111561124757825182559160200191906001019061122c565b5b5090506112559190611259565b5090565b5b8082111561127257600081600090555060010161125a565b5090565b6000604051905090565b600080fd5b600080fd5b600073ffffffffffffffffffffffffffffffffffffffff82169050919050565b60006112b58261128a565b9050919050565b6112c5816112aa565b81146112d057600080fd5b50565b6000813590506112e2816112bc565b92915050565b6000819050919050565b6112fb816112e8565b811461130657600080fd5b50565b600081359050611318816112f2565b92915050565b6000806040838503121561133557611334611280565b5b6000611343858286016112d3565b925050602061135485828601611309565b9150509250929050565b60006020828403121561137457611373611280565b5b600061138284828501611309565b91505092915050565b6000602082840312156113a1576113a0611280565b5b60006113af848285016112d3565b91505092915050565b600081519050919050565b600082825260208201905092915050565b6000819050602082019050919050565b6113ed816112e8565b82525050565b60006113ff83836113e4565b60208301905092915050565b6000602082019050919050565b6000611423826113b8565b61142d81856113c3565b9350611438836113d4565b8060005b8381101561146957815161145088826113f3565b975061145b8361140b565b92505060018101905061143c565b5085935050505092915050565b600060208201905081810360008301526114908184611418565b905092915050565b6000806000606084860312156114b1576114b0611280565b5b60006114bf868287016112d3565b93505060206114d0868287016112d3565b92505060406114e186828701611309565b9150509250925092565b600081519050919050565b600082825260208201905092915050565b60005b8381101561152557808201518184015260208101905061150a565b83811115611534576000848401525b50505050565b6000601f19601f8301169050919050565b6000611556826114eb565b61156081856114f6565b9350611570818560208601611507565b6115798161153a565b840191505092915050565b61158d816112e8565b82525050565b600063ffffffff82169050919050565b6115ac81611593565b82525050565b600060808201905081810360008301526115cc818761154b565b90506115db6020830186611584565b6115e860408301856115a3565b6115f560608301846115a3565b95945050505050565b611607816112aa565b82525050565b600060208201905061162260008301846115fe565b92915050565b600060208201905061163d6000830184611584565b92915050565b600080fd5b600080fd5b7f4e487b7100000000000000000000000000000000000000000000000000000000600052604160045260246000fd5b6116858261153a565b810181811067ffffffffffffffff821117156116a4576116a361164d565b5b80604052505050565b60006116b7611276565b90506116c3828261167c565b919050565b600067ffffffffffffffff8211156116e3576116e261164d565b5b6116ec8261153a565b9050602081019050919050565b82818337600083830152505050565b600061171b611716846116c8565b6116ad565b90508281526020810184848401111561173757611736611648565b5b6117428482856116f9565b509392505050565b600082601f83011261175f5761175e611643565b5b813561176f848260208601611708565b91505092915050565b60006020828403121561178e5761178d611280565b5b600082013567ffffffffffffffff8111156117ac576117ab611285565b5b6117b88482850161174a565b91505092915050565b60008115159050919050565b6117d6816117c1565b82525050565b60006020820190506117f160008301846117cd565b92915050565b7f4e487b7100000000000000000000000000000000000000000000000000000000600052603260045260246000fd5b7f4e487b7100000000000000000000000000000000000000000000000000000000600052601160045260246000fd5b600061186082611593565b915063ffffffff82141561187757611876611826565b5b600182019050919050565b600061188d826112e8565b91507fffffffffffffffffffffffffffffffffffffffffffffffffffffffffffffffff8214156118c0576118bf611826565b5b600182019050919050565b7f4e487b7100000000000000000000000000000000000000000000000000000000600052602260045260246000fd5b6000600282049050600182168061191257607f821691505b60208210811415611926576119256118cb565b5b50919050565b6000611937826112e8565b9150600082141561194b5761194a611826565b5b600182039050919050565b6000819050919050565b61197161196c826112e8565b611956565b82525050565b60008160601b9050919050565b600061198f82611977565b9050919050565b60006119a182611984565b9050919050565b6119b96119b4826112aa565b611996565b82525050565b60006119cb8285611960565b6020820191506119db82846119a8565b6014820191508190509392505050565b7f4e487b7100000000000000000000000000000000000000000000000000000000600052601260045260246000fd5b6000611a25826112e8565b9150611a30836112e8565b925082611a4057611a3f6119eb565b5b828206905092915050565b600081905092915050565b6000611a61826114eb565b611a6b8185611a4b565b9350611a7b818560208601611507565b80840191505092915050565b6000611a938284611a56565b915081905092915050565b6000611aa9826112e8565b9150611ab4836112e8565b9250827fffffffffffffffffffffffffffffffffffffffffffffffffffffffffffffffff03821115611ae957611ae8611826565b5b828201905092915050565b6000611aff826112e8565b9150611b0a836112e8565b925082821015611b1d57611b1c611826565b5b828203905092915050565b6000606082019050611b3d6000830186611584565b8181036020830152611b4f818561154b565b9050611b5e6040830184611584565b94935050505056fea26469706673582212205a42a0292001fe80822b14fd7282da32edbca0f6f3b8f6b93b1c96f1d676d51764736f6c634300080c0033",
  "immutableReferences": {},
  "source": "pragma solidity >=0.5.0;\n\n/**\n* @title Ownable\n* @dev The Ownable contract has an owner address, and provides basic authorization control\n* functions, this simplifies the implementation of \"user permissions\".\n*/\nabstract contract ERC721 {\n  event Transfer(address indexed _from, address indexed _to, uint256 indexed _tokenId);\n  event Approval(address indexed _owner, address indexed _approved, uint256 indexed _tokenId);\n\n  function balanceOf(address _owner) virtual external view returns (uint256);\n  function ownerOf(uint256 _tokenId) virtual external view returns (address);\n  function transferFrom(address _from, address _to, uint256 _tokenId) virtual external payable;\n  function approve(address _approved, uint256 _tokenId) virtual external payable;\n}\nabstract contract Ownable {\n  address private _owner;\n\n  event OwnershipTransferred(\n    address indexed previousOwner,\n    address indexed newOwner\n  );\n\n  /**\n  * @dev The Ownable constructor sets the original `owner` of the contract to the sender\n  * account.\n  */\n  constructor() {\n    _owner = msg.sender;\n    emit OwnershipTransferred(address(0), _owner);\n  }\n\n  /**\n  * @return the address of the owner.\n  */\n  function owner() public view returns(address) {\n    return _owner;\n  }\n\n  /**\n  * @dev Throws if called by any account other than the owner.\n  */\n  modifier onlyOwner() {\n    require(isOwner());\n    _;\n  }\n\n  /**\n  * @return true if `msg.sender` is the owner of the contract.\n  */\n  function isOwner() public view returns(bool) {\n    return msg.sender == _owner;\n  }\n\n  /**\n  * @dev Allows the current owner to relinquish control of the contract.\n  * @notice Renouncing to ownership will leave the contract without an owner.\n  * It will not be possible to call the functions with the `onlyOwner`\n  * modifier anymore.\n  */\n  function renounceOwnership() public onlyOwner {\n    emit OwnershipTransferred(_owner, address(0));\n    _owner = address(0);\n  }\n\n  /**\n  * @dev Allows the current owner to transfer control of the contract to a newOwner.\n  * @param newOwner The address to transfer ownership to.\n  */\n  function transferOwnership(address newOwner) public onlyOwner {\n    _transferOwnership(newOwner);\n  }\n\n  /**\n  * @dev Transfers control of the contract to a newOwner.\n  * @param newOwner The address to transfer ownership to.\n  */\n  function _transferOwnership(address newOwner) internal {\n    require(newOwner != address(0));\n    emit OwnershipTransferred(_owner, newOwner);\n    _owner = newOwner;\n  }\n}\n\ncontract myBb is Ownable, ERC721{\n  event NewBlob(uint blobId, string name, uint dna);\n\n  uint dnaDigits = 16;\n  uint dnaModulus = 10 ** dnaDigits;\n  uint cooldownTime = 10 seconds;\n\n  struct Blob{\n    string name;\n    uint dna;\n    uint32 level;\n    uint32 readyTime;\n  }\n\n  Blob[] public blobs;\n  mapping (uint => address) public blobToOwner;\n  mapping (address => uint) ownerBlobCount;\n\n  function _createBlob(string memory _name, uint _dna) internal {\n    blobs.push(Blob(_name, _dna, 1, uint32(block.timestamp + cooldownTime)));\n    uint id = blobs.length - 1;\n    blobToOwner[id] = msg.sender;\n    ownerBlobCount[msg.sender]++;\n    emit NewBlob(id, _name, _dna);\n  }\n\n  function _generateRandomDna(string memory _str) private view returns (uint) {\n    uint rand = uint(keccak256(abi.encodePacked(_str)));\n    return rand % dnaModulus;\n  }\n\n  function createRandomBlob(string memory _name) public {\n    /// @dev this is later changed for ERC20 token?\n    require(ownerBlobCount[msg.sender] == 0);\n\n    uint randDna = _generateRandomDna(_name);\n    _createBlob(_name, randDna);\n  }\n  modifier blobOwnerOf(uint _blobId){\n    require(msg.sender == blobToOwner[_blobId]);\n    _;\n  }\n  function _triggerCooldown(Blob storage _blob) internal {\n    _blob.readyTime = uint32(block.timestamp + cooldownTime);\n  }\n  function _isReady(Blob storage _blob) internal view returns(bool){\n    return (_blob.readyTime <= block.timestamp);\n  }\n\n  function feedChange(uint _blobId, string memory _foodType) internal blobOwnerOf(_blobId){\n\n    Blob storage myBlob = blobs[_blobId];\n    require(_isReady(myBlob));\n    uint newDna = uint(keccak256(abi.encodePacked(block.timestamp, msg.sender))) % dnaModulus;\n    myBlob.dna = newDna;\n    if(myBlob.level == 10){\n      _createBlob(\"NoName\", newDna);\n    }\n    _triggerCooldown(myBlob);\n\n  }\n\n  function feedOnCookie(uint _blobId) public {\n    feedChange(_blobId, \"placeholder\");\n  }\n\n  uint levelUpFee = 0.001 ether;\n\n  function levelUp(uint _blobId) external payable {\n    require(msg.value == levelUpFee);\n    blobs[_blobId].level++;\n  }\n\n  function withdraw() external onlyOwner {\n    address payable _owner = payable(owner());\n    _owner.transfer(address(this).balance);\n  }\n  function setLevelUpFee(uint _fee) external onlyOwner {\n    levelUpFee = _fee;\n  }\n\n  function getBlobsByOwner(address _owner) external view returns (uint[] memory) {\n    uint[] memory result = new uint[](ownerBlobCount[_owner]);\n    uint counter = 0;\n    for(uint i = 0; i < blobs.length; i++){\n      if(blobToOwner[i] == _owner){\n        result[counter] = i;\n        counter++;\n      }\n    }\n    return result;\n  }\n\n  mapping (uint => address) blobApprovals;\n\n  function balanceOf(address _owner) override external view returns (uint256) {\n    return ownerBlobCount[_owner];\n  }\n\n  function ownerOf(uint256 _tokenId) override external view returns (address) {\n    return blobToOwner[_tokenId];\n  }\n\n  function _transfer(address _from, address _to, uint256 _tokenId) private {\n    ownerBlobCount[_to]++;\n    ownerBlobCount[_from]--;\n    blobToOwner[_tokenId] = _to;\n    emit Transfer(_from, _to, _tokenId);\n  }\n\n  function transferFrom(address _from, address _to, uint256 _tokenId) override external payable {\n    require(msg.sender == blobToOwner[_tokenId] || msg.sender == blobApprovals[_tokenId]);\n    _transfer(_from, _to, _tokenId);\n  }\n\n  function approve(address _approved, uint256 _tokenId) override external payable blobOwnerOf(_tokenId) {\n    blobApprovals[_tokenId] = _approved;\n    emit Approval(msg.sender, _approved, _tokenId);\n  }\n}\n",
  "sourcePath": "/home/djsl1023/fullstackacademy/stackathon/contracts/myBb.sol",
  "compiler": {
    "name": "solc",
    "version": "0.8.12+commit.f00d7308.Emscripten.clang"
  },
  "schemaVersion": "3.4.6",
  "updatedAt": "2022-03-13T16:50:57.870Z",
  "networkType": "ethereum",
  "devdoc": {
    "kind": "dev",
    "methods": {
      "isOwner()": {
        "returns": {
          "_0": "true if `msg.sender` is the owner of the contract."
        }
      },
      "owner()": {
        "returns": {
          "_0": "the address of the owner."
        }
      },
      "renounceOwnership()": {
        "details": "Allows the current owner to relinquish control of the contract."
      },
      "transferOwnership(address)": {
        "details": "Allows the current owner to transfer control of the contract to a newOwner.",
        "params": {
          "newOwner": "The address to transfer ownership to."
        }
      }
    },
    "version": 1
  },
  "userdoc": {
    "kind": "user",
    "methods": {
      "renounceOwnership()": {
        "notice": "Renouncing to ownership will leave the contract without an owner. It will not be possible to call the functions with the `onlyOwner` modifier anymore."
      }
    },
    "version": 1
  }
}