{
  "contractName": "myBb",
  "abi": [
    {
      "anonymous": false,
      "inputs": [
        {
          "indexed": true,
          "internalType": "address",
          "name": "_owner",
          "type": "address"
        },
        {
          "indexed": true,
          "internalType": "address",
          "name": "_approved",
          "type": "address"
        },
        {
          "indexed": true,
          "internalType": "uint256",
          "name": "_tokenId",
          "type": "uint256"
        }
      ],
      "name": "Approval",
      "type": "event"
    },
    {
      "anonymous": false,
      "inputs": [
        {
          "indexed": false,
          "internalType": "uint256",
          "name": "blobId",
          "type": "uint256"
        },
        {
          "indexed": false,
          "internalType": "string",
          "name": "name",
          "type": "string"
        },
        {
          "indexed": false,
          "internalType": "uint256",
          "name": "dna",
          "type": "uint256"
        }
      ],
      "name": "NewBlob",
      "type": "event"
    },
    {
      "anonymous": false,
      "inputs": [
        {
          "indexed": true,
          "internalType": "address",
          "name": "previousOwner",
          "type": "address"
        },
        {
          "indexed": true,
          "internalType": "address",
          "name": "newOwner",
          "type": "address"
        }
      ],
      "name": "OwnershipTransferred",
      "type": "event"
    },
    {
      "anonymous": false,
      "inputs": [
        {
          "indexed": true,
          "internalType": "address",
          "name": "_from",
          "type": "address"
        },
        {
          "indexed": true,
          "internalType": "address",
          "name": "_to",
          "type": "address"
        },
        {
          "indexed": true,
          "internalType": "uint256",
          "name": "_tokenId",
          "type": "uint256"
        }
      ],
      "name": "Transfer",
      "type": "event"
    },
    {
      "inputs": [
        {
          "internalType": "uint256",
          "name": "",
          "type": "uint256"
        }
      ],
      "name": "blobToOwner",
      "outputs": [
        {
          "internalType": "address",
          "name": "",
          "type": "address"
        }
      ],
      "stateMutability": "view",
      "type": "function",
      "constant": true
    },
    {
      "inputs": [
        {
          "internalType": "uint256",
          "name": "",
          "type": "uint256"
        }
      ],
      "name": "blobs",
      "outputs": [
        {
          "internalType": "string",
          "name": "name",
          "type": "string"
        },
        {
          "internalType": "uint256",
          "name": "dna",
          "type": "uint256"
        },
        {
          "internalType": "uint32",
          "name": "level",
          "type": "uint32"
        },
        {
          "internalType": "uint32",
          "name": "readyTime",
          "type": "uint32"
        }
      ],
      "stateMutability": "view",
      "type": "function",
      "constant": true
    },
    {
      "inputs": [],
      "name": "isOwner",
      "outputs": [
        {
          "internalType": "bool",
          "name": "",
          "type": "bool"
        }
      ],
      "stateMutability": "view",
      "type": "function",
      "constant": true
    },
    {
      "inputs": [],
      "name": "owner",
      "outputs": [
        {
          "internalType": "address",
          "name": "",
          "type": "address"
        }
      ],
      "stateMutability": "view",
      "type": "function",
      "constant": true
    },
    {
      "inputs": [],
      "name": "renounceOwnership",
      "outputs": [],
      "stateMutability": "nonpayable",
      "type": "function"
    },
    {
      "inputs": [
        {
          "internalType": "address",
          "name": "newOwner",
          "type": "address"
        }
      ],
      "name": "transferOwnership",
      "outputs": [],
      "stateMutability": "nonpayable",
      "type": "function"
    },
    {
      "inputs": [],
      "name": "getBlobCount",
      "outputs": [
        {
          "internalType": "uint256",
          "name": "",
          "type": "uint256"
        }
      ],
      "stateMutability": "view",
      "type": "function",
      "constant": true
    },
    {
      "inputs": [
        {
          "internalType": "string",
          "name": "_name",
          "type": "string"
        }
      ],
      "name": "createRandomBlob",
      "outputs": [],
      "stateMutability": "nonpayable",
      "type": "function"
    },
    {
      "inputs": [
        {
          "internalType": "uint256",
          "name": "_blobId",
          "type": "uint256"
        }
      ],
      "name": "feedOnCookie",
      "outputs": [],
      "stateMutability": "nonpayable",
      "type": "function"
    },
    {
      "inputs": [
        {
          "internalType": "uint256",
          "name": "_blobId",
          "type": "uint256"
        }
      ],
      "name": "levelUp",
      "outputs": [],
      "stateMutability": "payable",
      "type": "function",
      "payable": true
    },
    {
      "inputs": [],
      "name": "withdraw",
      "outputs": [],
      "stateMutability": "nonpayable",
      "type": "function"
    },
    {
      "inputs": [
        {
          "internalType": "uint256",
          "name": "_fee",
          "type": "uint256"
        }
      ],
      "name": "setLevelUpFee",
      "outputs": [],
      "stateMutability": "nonpayable",
      "type": "function"
    },
    {
      "inputs": [
        {
          "internalType": "address",
          "name": "_owner",
          "type": "address"
        }
      ],
      "name": "getBlobsByOwner",
      "outputs": [
        {
          "internalType": "uint256[]",
          "name": "",
          "type": "uint256[]"
        }
      ],
      "stateMutability": "view",
      "type": "function",
      "constant": true
    },
    {
      "inputs": [
        {
          "internalType": "address",
          "name": "_owner",
          "type": "address"
        }
      ],
      "name": "balanceOf",
      "outputs": [
        {
          "internalType": "uint256",
          "name": "",
          "type": "uint256"
        }
      ],
      "stateMutability": "view",
      "type": "function",
      "constant": true
    },
    {
      "inputs": [
        {
          "internalType": "uint256",
          "name": "_tokenId",
          "type": "uint256"
        }
      ],
      "name": "ownerOf",
      "outputs": [
        {
          "internalType": "address",
          "name": "",
          "type": "address"
        }
      ],
      "stateMutability": "view",
      "type": "function",
      "constant": true
    },
    {
      "inputs": [
        {
          "internalType": "address",
          "name": "_from",
          "type": "address"
        },
        {
          "internalType": "address",
          "name": "_to",
          "type": "address"
        },
        {
          "internalType": "uint256",
          "name": "_tokenId",
          "type": "uint256"
        }
      ],
      "name": "transferFrom",
      "outputs": [],
      "stateMutability": "payable",
      "type": "function",
      "payable": true
    },
    {
      "inputs": [
        {
          "internalType": "address",
          "name": "_approved",
          "type": "address"
        },
        {
          "internalType": "uint256",
          "name": "_tokenId",
          "type": "uint256"
        }
      ],
      "name": "approve",
      "outputs": [],
      "stateMutability": "payable",
      "type": "function",
      "payable": true
    }
  ],
  "bytecode": "0x60806040526010600155600154600a6200001a919062000289565b600255600160035566038d7ea4c680006007553480156200003a57600080fd5b50336000806101000a81548173ffffffffffffffffffffffffffffffffffffffff021916908373ffffffffffffffffffffffffffffffffffffffff16021790555060008054906101000a900473ffffffffffffffffffffffffffffffffffffffff1673ffffffffffffffffffffffffffffffffffffffff16600073ffffffffffffffffffffffffffffffffffffffff167f8be0079c531659141344cd1fd0a4f28419497f9722a3daafe3b4186f6b6457e060405160405180910390a3620002da565b7f4e487b7100000000000000000000000000000000000000000000000000000000600052601160045260246000fd5b60008160011c9050919050565b6000808291508390505b60018511156200018a57808604811115620001625762000161620000fc565b5b6001851615620001725780820291505b808102905062000182856200012b565b945062000142565b94509492505050565b600082620001a5576001905062000278565b81620001b5576000905062000278565b8160018114620001ce5760028114620001d9576200020f565b600191505062000278565b60ff841115620001ee57620001ed620000fc565b5b8360020a915084821115620002085762000207620000fc565b5b5062000278565b5060208310610133831016604e8410600b8410161715620002495782820a905083811115620002435762000242620000fc565b5b62000278565b62000258848484600162000138565b92509050818404811115620002725762000271620000fc565b5b81810290505b9392505050565b6000819050919050565b600062000296826200027f565b9150620002a3836200027f565b9250620002d27fffffffffffffffffffffffffffffffffffffffffffffffffffffffffffffffff848462000193565b905092915050565b611c5f80620002ea6000396000f3fe6080604052600436106100fe5760003560e01c806370a08231116100955780638f32d59b116100645780638f32d59b146102f9578063970bad6f14610324578063ccf670f814610361578063e1c0375f1461038a578063f2fde38b146103b5576100fe565b806370a0823114610251578063715018a61461028e5780637c80f25b146102a55780638da5cb5b146102ce576100fe565b80632abc3d4e116100d15780632abc3d4e146101945780633ccfd60b146101d45780636352211e146101eb578063662528c914610228576100fe565b8063095ea7b3146101035780630ce90ec21461011f5780631782d4731461013b57806323b872dd14610178575b600080fd5b61011d600480360381019061011891906113b0565b6103de565b005b610139600480360381019061013491906113f0565b6104fc565b005b34801561014757600080fd5b50610162600480360381019061015d919061141d565b610571565b60405161016f9190611508565b60405180910390f35b610192600480360381019061018d919061152a565b6106c4565b005b3480156101a057600080fd5b506101bb60048036038101906101b691906113f0565b6107a8565b6040516101cb9493929190611644565b60405180910390f35b3480156101e057600080fd5b506101e9610890565b005b3480156101f757600080fd5b50610212600480360381019061020d91906113f0565b6108f7565b60405161021f919061169f565b60405180910390f35b34801561023457600080fd5b5061024f600480360381019061024a91906113f0565b610934565b005b34801561025d57600080fd5b506102786004803603810190610273919061141d565b610976565b60405161028591906116ba565b60405180910390f35b34801561029a57600080fd5b506102a36109bf565b005b3480156102b157600080fd5b506102cc60048036038101906102c7919061180a565b610a8e565b005b3480156102da57600080fd5b506102e3610af5565b6040516102f0919061169f565b60405180910390f35b34801561030557600080fd5b5061030e610b1e565b60405161031b919061186e565b60405180910390f35b34801561033057600080fd5b5061034b600480360381019061034691906113f0565b610b75565b604051610358919061169f565b60405180910390f35b34801561036d57600080fd5b50610388600480360381019061038391906113f0565b610ba8565b005b34801561039657600080fd5b5061039f610bc3565b6040516103ac91906116ba565b60405180910390f35b3480156103c157600080fd5b506103dc60048036038101906103d7919061141d565b610bd0565b005b806005600082815260200190815260200160002060009054906101000a900473ffffffffffffffffffffffffffffffffffffffff1673ffffffffffffffffffffffffffffffffffffffff163373ffffffffffffffffffffffffffffffffffffffff161461044a57600080fd5b826008600084815260200190815260200160002060006101000a81548173ffffffffffffffffffffffffffffffffffffffff021916908373ffffffffffffffffffffffffffffffffffffffff160217905550818373ffffffffffffffffffffffffffffffffffffffff163373ffffffffffffffffffffffffffffffffffffffff167f8c5be1e5ebec7d5bd14f71427d1e84f3dd0314c0f7b2291e5b200ac8c7c3b92560405160405180910390a4505050565b600754341461050a57600080fd5b6004818154811061051e5761051d611889565b5b9060005260206000209060030201600201600081819054906101000a900463ffffffff168092919061054f906118e7565b91906101000a81548163ffffffff021916908363ffffffff1602179055505050565b60606000600660008473ffffffffffffffffffffffffffffffffffffffff1673ffffffffffffffffffffffffffffffffffffffff1681526020019081526020016000205467ffffffffffffffff8111156105ce576105cd6116df565b5b6040519080825280602002602001820160405280156105fc5781602001602082028036833780820191505090505b5090506000805b6004805490508110156106b9578473ffffffffffffffffffffffffffffffffffffffff166005600083815260200190815260200160002060009054906101000a900473ffffffffffffffffffffffffffffffffffffffff1673ffffffffffffffffffffffffffffffffffffffff1614156106a6578083838151811061068b5761068a611889565b5b60200260200101818152505081806106a290611914565b9250505b80806106b190611914565b915050610603565b508192505050919050565b6005600082815260200190815260200160002060009054906101000a900473ffffffffffffffffffffffffffffffffffffffff1673ffffffffffffffffffffffffffffffffffffffff163373ffffffffffffffffffffffffffffffffffffffff16148061078f57506008600082815260200190815260200160002060009054906101000a900473ffffffffffffffffffffffffffffffffffffffff1673ffffffffffffffffffffffffffffffffffffffff163373ffffffffffffffffffffffffffffffffffffffff16145b61079857600080fd5b6107a3838383610bed565b505050565b600481815481106107b857600080fd5b90600052602060002090600302016000915090508060000180546107db9061198c565b80601f01602080910402602001604051908101604052809291908181526020018280546108079061198c565b80156108545780601f1061082957610100808354040283529160200191610854565b820191906000526020600020905b81548152906001019060200180831161083757829003601f168201915b5050505050908060010154908060020160009054906101000a900463ffffffff16908060020160049054906101000a900463ffffffff16905084565b610898610b1e565b6108a157600080fd5b60006108ab610af5565b90508073ffffffffffffffffffffffffffffffffffffffff166108fc479081150290604051600060405180830381858888f193505050501580156108f3573d6000803e3d6000fd5b5050565b60006005600083815260200190815260200160002060009054906101000a900473ffffffffffffffffffffffffffffffffffffffff169050919050565b610973816040518060400160405280600b81526020017f706c616365686f6c646572000000000000000000000000000000000000000000815250610d49565b50565b6000600660008373ffffffffffffffffffffffffffffffffffffffff1673ffffffffffffffffffffffffffffffffffffffff168152602001908152602001600020549050919050565b6109c7610b1e565b6109d057600080fd5b600073ffffffffffffffffffffffffffffffffffffffff1660008054906101000a900473ffffffffffffffffffffffffffffffffffffffff1673ffffffffffffffffffffffffffffffffffffffff167f8be0079c531659141344cd1fd0a4f28419497f9722a3daafe3b4186f6b6457e060405160405180910390a360008060006101000a81548173ffffffffffffffffffffffffffffffffffffffff021916908373ffffffffffffffffffffffffffffffffffffffff160217905550565b6000600660003373ffffffffffffffffffffffffffffffffffffffff1673ffffffffffffffffffffffffffffffffffffffff1681526020019081526020016000205414610ada57600080fd5b6000610ae582610ef5565b9050610af18282610f3a565b5050565b60008060009054906101000a900473ffffffffffffffffffffffffffffffffffffffff16905090565b60008060009054906101000a900473ffffffffffffffffffffffffffffffffffffffff1673ffffffffffffffffffffffffffffffffffffffff163373ffffffffffffffffffffffffffffffffffffffff1614905090565b60056020528060005260406000206000915054906101000a900473ffffffffffffffffffffffffffffffffffffffff1681565b610bb0610b1e565b610bb957600080fd5b8060078190555050565b6000600480549050905090565b610bd8610b1e565b610be157600080fd5b610bea81611114565b50565b600660008373ffffffffffffffffffffffffffffffffffffffff1673ffffffffffffffffffffffffffffffffffffffff1681526020019081526020016000206000815480929190610c3d90611914565b9190505550600660008473ffffffffffffffffffffffffffffffffffffffff1673ffffffffffffffffffffffffffffffffffffffff1681526020019081526020016000206000815480929190610c92906119be565b9190505550816005600083815260200190815260200160002060006101000a81548173ffffffffffffffffffffffffffffffffffffffff021916908373ffffffffffffffffffffffffffffffffffffffff160217905550808273ffffffffffffffffffffffffffffffffffffffff168473ffffffffffffffffffffffffffffffffffffffff167fddf252ad1be2c89b69c2b068fc378daa952ba7f163c4a11628f55a4df523b3ef60405160405180910390a4505050565b816005600082815260200190815260200160002060009054906101000a900473ffffffffffffffffffffffffffffffffffffffff1673ffffffffffffffffffffffffffffffffffffffff163373ffffffffffffffffffffffffffffffffffffffff1614610db557600080fd5b600060048481548110610dcb57610dca611889565b5b90600052602060002090600302019050610de48161120b565b610ded57600080fd5b60006002544233604051602001610e05929190611a51565b6040516020818303038152906040528051906020012060001c610e289190611aac565b905080826001018190555081600201600081819054906101000a900463ffffffff1680929190610e57906118e7565b91906101000a81548163ffffffff021916908363ffffffff160217905550506000600a8360020160009054906101000a900463ffffffff16610e999190611add565b63ffffffff161415610ee557610ee46040518060400160405280600681526020017f4e6f4e616d65000000000000000000000000000000000000000000000000000081525082610f3a565b5b610eee82611232565b5050505050565b60008082604051602001610f099190611b4a565b6040516020818303038152906040528051906020012060001c905060025481610f329190611aac565b915050919050565b60046040518060800160405280848152602001838152602001600163ffffffff16815260200160035442610f6e9190611b61565b63ffffffff1681525090806001815401808255809150506001900390600052602060002090600302016000909190919091506000820151816000019080519060200190610fbc929190611265565b506020820151816001015560408201518160020160006101000a81548163ffffffff021916908363ffffffff16021790555060608201518160020160046101000a81548163ffffffff021916908363ffffffff16021790555050506000600160048054905061102b9190611bb7565b9050336005600083815260200190815260200160002060006101000a81548173ffffffffffffffffffffffffffffffffffffffff021916908373ffffffffffffffffffffffffffffffffffffffff160217905550600660003373ffffffffffffffffffffffffffffffffffffffff1673ffffffffffffffffffffffffffffffffffffffff16815260200190815260200160002060008154809291906110cf90611914565b91905055507f83253f07cdb88c445d046dda4df8617f3a41ce4ed98c1fa8e5e5236ad9dd2ed681848460405161110793929190611beb565b60405180910390a1505050565b600073ffffffffffffffffffffffffffffffffffffffff168173ffffffffffffffffffffffffffffffffffffffff16141561114e57600080fd5b8073ffffffffffffffffffffffffffffffffffffffff1660008054906101000a900473ffffffffffffffffffffffffffffffffffffffff1673ffffffffffffffffffffffffffffffffffffffff167f8be0079c531659141344cd1fd0a4f28419497f9722a3daafe3b4186f6b6457e060405160405180910390a3806000806101000a81548173ffffffffffffffffffffffffffffffffffffffff021916908373ffffffffffffffffffffffffffffffffffffffff16021790555050565b6000428260020160049054906101000a900463ffffffff1663ffffffff1611159050919050565b600354426112409190611b61565b8160020160046101000a81548163ffffffff021916908363ffffffff16021790555050565b8280546112719061198c565b90600052602060002090601f01602090048101928261129357600085556112da565b82601f106112ac57805160ff19168380011785556112da565b828001600101855582156112da579182015b828111156112d95782518255916020019190600101906112be565b5b5090506112e791906112eb565b5090565b5b808211156113045760008160009055506001016112ec565b5090565b6000604051905090565b600080fd5b600080fd5b600073ffffffffffffffffffffffffffffffffffffffff82169050919050565b60006113478261131c565b9050919050565b6113578161133c565b811461136257600080fd5b50565b6000813590506113748161134e565b92915050565b6000819050919050565b61138d8161137a565b811461139857600080fd5b50565b6000813590506113aa81611384565b92915050565b600080604083850312156113c7576113c6611312565b5b60006113d585828601611365565b92505060206113e68582860161139b565b9150509250929050565b60006020828403121561140657611405611312565b5b60006114148482850161139b565b91505092915050565b60006020828403121561143357611432611312565b5b600061144184828501611365565b91505092915050565b600081519050919050565b600082825260208201905092915050565b6000819050602082019050919050565b61147f8161137a565b82525050565b60006114918383611476565b60208301905092915050565b6000602082019050919050565b60006114b58261144a565b6114bf8185611455565b93506114ca83611466565b8060005b838110156114fb5781516114e28882611485565b97506114ed8361149d565b9250506001810190506114ce565b5085935050505092915050565b6000602082019050818103600083015261152281846114aa565b905092915050565b60008060006060848603121561154357611542611312565b5b600061155186828701611365565b935050602061156286828701611365565b92505060406115738682870161139b565b9150509250925092565b600081519050919050565b600082825260208201905092915050565b60005b838110156115b757808201518184015260208101905061159c565b838111156115c6576000848401525b50505050565b6000601f19601f8301169050919050565b60006115e88261157d565b6115f28185611588565b9350611602818560208601611599565b61160b816115cc565b840191505092915050565b61161f8161137a565b82525050565b600063ffffffff82169050919050565b61163e81611625565b82525050565b6000608082019050818103600083015261165e81876115dd565b905061166d6020830186611616565b61167a6040830185611635565b6116876060830184611635565b95945050505050565b6116998161133c565b82525050565b60006020820190506116b46000830184611690565b92915050565b60006020820190506116cf6000830184611616565b92915050565b600080fd5b600080fd5b7f4e487b7100000000000000000000000000000000000000000000000000000000600052604160045260246000fd5b611717826115cc565b810181811067ffffffffffffffff82111715611736576117356116df565b5b80604052505050565b6000611749611308565b9050611755828261170e565b919050565b600067ffffffffffffffff821115611775576117746116df565b5b61177e826115cc565b9050602081019050919050565b82818337600083830152505050565b60006117ad6117a88461175a565b61173f565b9050828152602081018484840111156117c9576117c86116da565b5b6117d484828561178b565b509392505050565b600082601f8301126117f1576117f06116d5565b5b813561180184826020860161179a565b91505092915050565b6000602082840312156118205761181f611312565b5b600082013567ffffffffffffffff81111561183e5761183d611317565b5b61184a848285016117dc565b91505092915050565b60008115159050919050565b61186881611853565b82525050565b6000602082019050611883600083018461185f565b92915050565b7f4e487b7100000000000000000000000000000000000000000000000000000000600052603260045260246000fd5b7f4e487b7100000000000000000000000000000000000000000000000000000000600052601160045260246000fd5b60006118f282611625565b915063ffffffff821415611909576119086118b8565b5b600182019050919050565b600061191f8261137a565b91507fffffffffffffffffffffffffffffffffffffffffffffffffffffffffffffffff821415611952576119516118b8565b5b600182019050919050565b7f4e487b7100000000000000000000000000000000000000000000000000000000600052602260045260246000fd5b600060028204905060018216806119a457607f821691505b602082108114156119b8576119b761195d565b5b50919050565b60006119c98261137a565b915060008214156119dd576119dc6118b8565b5b600182039050919050565b6000819050919050565b611a036119fe8261137a565b6119e8565b82525050565b60008160601b9050919050565b6000611a2182611a09565b9050919050565b6000611a3382611a16565b9050919050565b611a4b611a468261133c565b611a28565b82525050565b6000611a5d82856119f2565b602082019150611a6d8284611a3a565b6014820191508190509392505050565b7f4e487b7100000000000000000000000000000000000000000000000000000000600052601260045260246000fd5b6000611ab78261137a565b9150611ac28361137a565b925082611ad257611ad1611a7d565b5b828206905092915050565b6000611ae882611625565b9150611af383611625565b925082611b0357611b02611a7d565b5b828206905092915050565b600081905092915050565b6000611b248261157d565b611b2e8185611b0e565b9350611b3e818560208601611599565b80840191505092915050565b6000611b568284611b19565b915081905092915050565b6000611b6c8261137a565b9150611b778361137a565b9250827fffffffffffffffffffffffffffffffffffffffffffffffffffffffffffffffff03821115611bac57611bab6118b8565b5b828201905092915050565b6000611bc28261137a565b9150611bcd8361137a565b925082821015611be057611bdf6118b8565b5b828203905092915050565b6000606082019050611c006000830186611616565b8181036020830152611c1281856115dd565b9050611c216040830184611616565b94935050505056fea2646970667358221220b7e99df2c9d2f170269efd96f4486c0be2f824c386efcf9cd59558fe8da2db8f64736f6c634300080c0033",
  "immutableReferences": {},
  "source": "pragma solidity >=0.5.0;\n\n/**\n* @title Ownable\n* @dev The Ownable contract has an owner address, and provides basic authorization control\n* functions, this simplifies the implementation of \"user permissions\".\n*/\nabstract contract ERC721 {\n  event Transfer(address indexed _from, address indexed _to, uint256 indexed _tokenId);\n  event Approval(address indexed _owner, address indexed _approved, uint256 indexed _tokenId);\n\n  function balanceOf(address _owner) virtual external view returns (uint256);\n  function ownerOf(uint256 _tokenId) virtual external view returns (address);\n  function transferFrom(address _from, address _to, uint256 _tokenId) virtual external payable;\n  function approve(address _approved, uint256 _tokenId) virtual external payable;\n}\nabstract contract Ownable {\n  address private _owner;\n\n  event OwnershipTransferred(\n    address indexed previousOwner,\n    address indexed newOwner\n  );\n\n  /**\n  * @dev The Ownable constructor sets the original `owner` of the contract to the sender\n  * account.\n  */\n  constructor() {\n    _owner = msg.sender;\n    emit OwnershipTransferred(address(0), _owner);\n  }\n\n  /**\n  * @return the address of the owner.\n  */\n  function owner() public view returns(address) {\n    return _owner;\n  }\n\n  /**\n  * @dev Throws if called by any account other than the owner.\n  */\n  modifier onlyOwner() {\n    require(isOwner());\n    _;\n  }\n\n  /**\n  * @return true if `msg.sender` is the owner of the contract.\n  */\n  function isOwner() public view returns(bool) {\n    return msg.sender == _owner;\n  }\n\n  /**\n  * @dev Allows the current owner to relinquish control of the contract.\n  * @notice Renouncing to ownership will leave the contract without an owner.\n  * It will not be possible to call the functions with the `onlyOwner`\n  * modifier anymore.\n  */\n  function renounceOwnership() public onlyOwner {\n    emit OwnershipTransferred(_owner, address(0));\n    _owner = address(0);\n  }\n\n  /**\n  * @dev Allows the current owner to transfer control of the contract to a newOwner.\n  * @param newOwner The address to transfer ownership to.\n  */\n  function transferOwnership(address newOwner) public onlyOwner {\n    _transferOwnership(newOwner);\n  }\n\n  /**\n  * @dev Transfers control of the contract to a newOwner.\n  * @param newOwner The address to transfer ownership to.\n  */\n  function _transferOwnership(address newOwner) internal {\n    require(newOwner != address(0));\n    emit OwnershipTransferred(_owner, newOwner);\n    _owner = newOwner;\n  }\n}\n\ncontract myBb is Ownable, ERC721{\n  event NewBlob(uint blobId, string name, uint dna);\n\n  uint dnaDigits = 16;\n  uint dnaModulus = 10 ** dnaDigits;\n  uint cooldownTime = 1 seconds;\n\n  struct Blob{\n    string name;\n    uint dna;\n    uint32 level;\n    uint32 readyTime;\n  }\n\n  Blob[] public blobs;\n  mapping (uint => address) public blobToOwner;\n  mapping (address => uint) ownerBlobCount;\n\n  function getBlobCount() public view returns (uint) {\n    return blobs.length;\n}\n  function _createBlob(string memory _name, uint _dna) internal {\n    blobs.push(Blob(_name, _dna, 1, uint32(block.timestamp + cooldownTime)));\n    uint id = blobs.length - 1;\n    blobToOwner[id] = msg.sender;\n    ownerBlobCount[msg.sender]++;\n    emit NewBlob(id, _name, _dna);\n  }\n\n  function _generateRandomDna(string memory _str) private view returns (uint) {\n    uint rand = uint(keccak256(abi.encodePacked(_str)));\n    return rand % dnaModulus;\n  }\n\n  function createRandomBlob(string memory _name) public {\n    /// @dev this is later changed for ERC20 token?\n    require(ownerBlobCount[msg.sender] == 0);\n\n    uint randDna = _generateRandomDna(_name);\n    _createBlob(_name, randDna);\n  }\n  modifier blobOwnerOf(uint _blobId){\n    require(msg.sender == blobToOwner[_blobId]);\n    _;\n  }\n  function _triggerCooldown(Blob storage _blob) internal {\n    _blob.readyTime = uint32(block.timestamp + cooldownTime);\n  }\n  function _isReady(Blob storage _blob) internal view returns(bool){\n    return (_blob.readyTime <= block.timestamp);\n  }\n\n  function feedChange(uint _blobId, string memory _foodType) internal blobOwnerOf(_blobId){\n\n    Blob storage myBlob = blobs[_blobId];\n    require(_isReady(myBlob));\n    uint newDna = uint(keccak256(abi.encodePacked(block.timestamp, msg.sender))) % dnaModulus;\n    myBlob.dna = newDna;\n    myBlob.level++;\n    if(myBlob.level % 10 == 0){\n      _createBlob(\"NoName\", newDna);\n    }\n    _triggerCooldown(myBlob);\n\n  }\n\n  function feedOnCookie(uint _blobId) public {\n    feedChange(_blobId, \"placeholder\");\n  }\n\n  uint levelUpFee = 0.001 ether;\n\n  function levelUp(uint _blobId) external payable {\n    require(msg.value == levelUpFee);\n    blobs[_blobId].level++;\n  }\n\n  function withdraw() external onlyOwner {\n    address payable _owner = payable(owner());\n    _owner.transfer(address(this).balance);\n  }\n  function setLevelUpFee(uint _fee) external onlyOwner {\n    levelUpFee = _fee;\n  }\n\n  function getBlobsByOwner(address _owner) external view returns (uint[] memory) {\n    uint[] memory result = new uint[](ownerBlobCount[_owner]);\n    uint counter = 0;\n    for(uint i = 0; i < blobs.length; i++){\n      if(blobToOwner[i] == _owner){\n        result[counter] = i;\n        counter++;\n      }\n    }\n    return result;\n  }\n\n  mapping (uint => address) blobApprovals;\n\n  function balanceOf(address _owner) override external view returns (uint256) {\n    return ownerBlobCount[_owner];\n  }\n\n  function ownerOf(uint256 _tokenId) override external view returns (address) {\n    return blobToOwner[_tokenId];\n  }\n\n  function _transfer(address _from, address _to, uint256 _tokenId) private {\n    ownerBlobCount[_to]++;\n    ownerBlobCount[_from]--;\n    blobToOwner[_tokenId] = _to;\n    emit Transfer(_from, _to, _tokenId);\n  }\n\n  function transferFrom(address _from, address _to, uint256 _tokenId) override external payable {\n    require(msg.sender == blobToOwner[_tokenId] || msg.sender == blobApprovals[_tokenId]);\n    _transfer(_from, _to, _tokenId);\n  }\n\n  function approve(address _approved, uint256 _tokenId) override external payable blobOwnerOf(_tokenId) {\n    blobApprovals[_tokenId] = _approved;\n    emit Approval(msg.sender, _approved, _tokenId);\n  }\n}\n",
  "sourcePath": "/home/djsl1023/fullstackacademy/stackathon/contracts/myBb.sol",
  "compiler": {
    "name": "solc",
    "version": "0.8.12+commit.f00d7308.Emscripten.clang"
  },
  "schemaVersion": "3.4.6",
  "updatedAt": "2022-03-14T23:58:40.922Z",
  "networkType": "ethereum",
  "devdoc": {
    "kind": "dev",
    "methods": {
      "isOwner()": {
        "returns": {
          "_0": "true if `msg.sender` is the owner of the contract."
        }
      },
      "owner()": {
        "returns": {
          "_0": "the address of the owner."
        }
      },
      "renounceOwnership()": {
        "details": "Allows the current owner to relinquish control of the contract."
      },
      "transferOwnership(address)": {
        "details": "Allows the current owner to transfer control of the contract to a newOwner.",
        "params": {
          "newOwner": "The address to transfer ownership to."
        }
      }
    },
    "version": 1
  },
  "userdoc": {
    "kind": "user",
    "methods": {
      "renounceOwnership()": {
        "notice": "Renouncing to ownership will leave the contract without an owner. It will not be possible to call the functions with the `onlyOwner` modifier anymore."
      }
    },
    "version": 1
  }
}